:100000000C945D000C949D040C9476040C94C40430
:100010000C94C4040C94C4040C9485000C948500C6
:100020000C9485000C9485000C9485000C9485003C
:100030000C9485000C9485000C9485000C9485002C
:100040000C942C040C9485000C94FA030C94D403A7
:100050000C9485000C9485000C9485000C9485000C
:100060000C94CE040C9485000000000024002700AE
:100070002A0000000000250028002B0004040404CE
:100080000404040402020202020203030303030342
:10009000010204081020408001020408102001021F
:1000A00004081020000000080002010000030407FB
:1000B0000000000000000000FC0511241FBECFEF6F
:1000C000D8E0DEBFCDBF11E0A0E0B1E0EAE2F4E1AC
:1000D00002C005900D92AA32B107D9F722E0AAE238
:1000E000B1E001C01D92AE3CB207E1F710E0CDE5F2
:1000F000D0E004C02197FE010E94080ACC35D10748
:10010000C9F70E9435060C94130A0C940000E5E22E
:10011000F2E0A089B18982E08C93A485B5851C9218
:10012000A685B7858FEC8C93108EA489B58986E05F
:100130008C93A289B3898C9180618C93A289B389B5
:100140008C9188608C93A289B3898C9180688C9300
:100150000288F389E02D80818F7D8083089590E06F
:10016000FC01EC55FF4F2491FC01E057FF4F349107
:10017000FC01E458FF4FE491EE23B1F1222339F161
:10018000233091F038F42130A9F0223001F584B504
:100190008F7D12C0273091F02830A1F02430B9F4BF
:1001A000809180008F7D03C0809180008F77809345
:1001B00080000DC084B58F7784BD09C08091B000E8
:1001C0008F7703C08091B0008F7D8093B000F0E006
:1001D000EE0FFF1FEE58FF4FA591B4918FB7F89423
:1001E000EC91E32BEC938FBF0895CF92DF92EF92C7
:1001F000FF920F931F93CF93DF936C017A018B01D2
:10020000C0E0D0E0CE15DF0581F0D8016D918D0101
:10021000D601ED91FC910190F081E02DC601099588
:10022000892B11F02196EECF7E01C701DF91CF918E
:100230001F910F91FF90EF90DF90CF900895109253
:10024000040108950895E091D401F091D50130970B
:1002500029F01092CF011092CE0109940895CF9306
:10026000DF93AC01E091D201F091D3013097F1F02E
:100270009091D1018091D0019817C0F090E0292F82
:1002800030E02617370754F4D901AB5CBE4FEA01C2
:10029000C20FD31F28812C939F5FF1CF1092D10101
:1002A0006093D001CB01DF91CF910994DF91CF9181
:1002B0000895FC01538D448D252F30E0842F90E06C
:1002C000821B930B541710F0CF9608950197089551
:1002D000FC01918D828D981761F0828DDF01A80F4E
:1002E000B11D5D968C91928D9F5F9F73928F90E070
:1002F00008958FEF9FEF0895FC01918D828D9817DF
:1003000031F0828DE80FF11D858D90E008958FEF1B
:100310009FEF0895FC01918D228D892F90E0805CE4
:100320009F4F821B91098F739927089585E292E070
:100330000E948A0121E0892B09F420E0822F089590
:10034000FC01848DDF01A80FB11DA35ABF4F2C9172
:10035000848D90E001968F739927848FA689B78941
:100360002C93A089B1898C91837080648C93938D38
:10037000848D981306C00288F389E02D80818F7DDB
:1003800080830895EF92FF920F931F93CF93DF9393
:10039000EC0181E0888F9B8D8C8D981305C0E889D6
:1003A000F989808185FD26C0F62E0B8D10E00F5F48
:1003B0001F4F0F731127E02E8C8DE8120CC00FB663
:1003C00007FCFACFE889F989808185FFF5CFCE0156
:1003D0000E94A001F1CF8B8DFE01E80FF11DE35AC1
:1003E000FF4FF0829FB7F8940B8FEA89FB898081D9
:1003F00080620AC09FB7F894EE89FF896083E8891C
:10040000F98980818370806480839FBF81E090E060
:10041000DF91CF911F910F91FF90EF900895CF93AF
:10042000DF93EC01888D8823C9F0EA89FB898081FC
:1004300085FD05C0A889B9898C9186FD0FC00FB6CE
:1004400007FCF5CF808185FFF2CFA889B9898C910F
:1004500085FFEDCFCE010E94A001E7CFDF91CF91C4
:10046000089580E090E0892B29F00E949601811187
:100470000C9400000895CF93DF9390E0FC01E057C7
:10048000FF4F2491FC01E458FF4F8491882361F1D0
:1004900090E0880F991FFC01E859FF4FC591D49156
:1004A000FC01EE58FF4FA591B491611109C09FB7AF
:1004B000F8948881209582238883EC912E230BC0A9
:1004C000623061F49FB7F8948881322F309583238E
:1004D0008883EC912E2B2C939FBF06C08FB7F89486
:1004E000E8812E2B28838FBFDF91CF9108953FB7EE
:1004F000F8948091C3019091C401A091C501B0917D
:10050000C60126B5A89B05C02F3F19F00196A11D75
:10051000B11D3FBFBA2FA92F982F8827820F911D99
:10052000A11DB11DBC01CD0142E0660F771F881FE0
:10053000991F4A95D1F708958F929F92AF92BF92DB
:10054000CF92DF92EF92FF926B017C010E947702C3
:100550004B015C01C114D104E104F104F1F00E94EB
:100560007702DC01CB0188199909AA09BB09883EE9
:100570009340A105B10570F321E0C21AD108E1084A
:10058000F10888EE880E83E0981EA11CB11CC114EE
:10059000D104E104F10419F7DDCFFF90EF90DF9073
:1005A000CF90BF90AF909F908F90089585ED8093EE
:1005B000BC008091BC0084FDFCCF1092CD01089559
:1005C00040917501262F30E0240F311D2132310575
:1005D000DCF42091CD012430C9F4FC0180E090E0EE
:1005E000861758F4309175012191DC01AB5ABE4F4A
:1005F000A30FB11D2C930196F3CF80917501680F65
:100600006093750180E0089581E0089582E0089587
:100610000895E091D1018091D001E81730F4F0E025
:10062000EB5CFE4F808190E008958FEF9FEF08957F
:100630009091D1018091D001981750F4E92FF0E00A
:10064000EB5CFE4F208130E09F5F9093D10102C0B0
:100650002FEF3FEFC90108958091D00190E02091E4
:10066000D101821B91090895CF93DF93CB01EA0159
:10067000642F0E94E002CE01DF91CF910895CF93C5
:10068000DF931F92CDB7DEB7698361E0CE0101969B
:100690000E94E00281E090E00F90DF91CF910895F9
:1006A000089580E090E00895CF93DF938091340126
:1006B000813A79F4CAE2D1E0699182EC92E00E9439
:1006C0003F0381E0C333D807B9F781E08093040189
:1006D00003C083E080933301DF91CF910895CF93DE
:1006E000C1E08091D00190E02091D101821B91095D
:1006F00002973CF082EC92E00E941803C093330111
:10070000F0CF82EC92E00E9418039927813A91057C
:1007100041F0853A910509F040C081E080930401E1
:100720003FC081EA809334018091DA019091DB012E
:10073000A091DC01B091DD0180932A0190932B01FF
:10074000A0932C01B0932D018091D6019091D701F7
:10075000A091D801B091D90180932E0190932F01DF
:10076000A0933001B0933101809133018093320125
:100770001092E4011092E5011092E6011092E70157
:100780001092E0011092E1011092E2011092E30157
:100790001092DF011092DE0103C082E080933301EA
:1007A000CF9108950E940E0A1F920F920FB60F92DA
:1007B00011242F933F934F935F936F937F938F9366
:1007C0009F93AF93BF93EF93FF9385E292E00E94D4
:1007D000A001FF91EF91BF91AF919F918F917F9178
:1007E0006F915F914F913F912F910F900FBE0F909E
:1007F0001F9018951F920F920FB60F9211242F93EE
:100800008F939F93EF93FF93E0913502F09136021F
:100810008081E0913B02F0913C0282FD12C0908108
:1008200080913E028F5F8F7320913F02821751F0BB
:10083000E0913E02F0E0EB5DFD4F958F80933E022C
:1008400001C08081FF91EF919F918F912F910F9027
:100850000FBE0F901F9018951F920F920FB60F9218
:1008600011242F933F938F939F93AF93BF938091C6
:10087000BF019091C001A091C101B091C20130911E
:10088000BE0123E0230F2D3720F40196A11DB11DD9
:1008900005C026E8230F0296A11DB11D2093BE01BD
:1008A0008093BF019093C001A093C101B093C20196
:1008B0008091C3019091C401A091C501B091C6017E
:1008C0000196A11DB11D8093C3019093C401A09313
:1008D000C501B093C601BF91AF919F918F913F9198
:1008E0002F910F900FBE0F901F9018951F920F928F
:1008F0000FB60F9211242F933F934F935F936F93F3
:100900007F938F939F93AF93BF93EF93FF93E09168
:100910000201F09103010995FF91EF91BF91AF9111
:100920009F918F917F916F915F914F913F912F9107
:100930000F900FBE0F901F9018951F920F920FB639
:100940000F9211242F933F934F935F936F937F9355
:100950008F939F93AF93BF93EF93FF93E091000129
:10096000F09101010995FF91EF91BF91AF919F9196
:100970008F917F916F915F914F913F912F910F9048
:100980000FBE0F901F9018951F920F920FB60F92E7
:1009900011240F900FBE0F901F9018951F920F9269
:1009A0000FB60F9211242F933F934F935F936F9342
:1009B0007F938F939F93AF93BF93EF93FF93809118
:1009C000B900887F803609F49CC068F5883209F444
:1009D0005BC090F4803109F454C038F4882309F4E2
:1009E000F6C0883009F44DC0F6C0883109F44CC017
:1009F000803209F45DC0EFC0803409F468C048F467
:100A0000803309F455C0883309F0E5C0809398011C
:100A1000D8C0803509F44FC0883509F45DC08834EA
:100A200009F0D9C0D6C0883909F4C7C0A8F48837FE
:100A300009F467C038F4883609F463C0803709F4D4
:100A400060C0C9C0883809F4B8C0803909F45FC0F3
:100A5000803809F0C0C05BC0803B09F486C038F420
:100A6000803A09F466C0883A09F47FC0B4C0803C7B
:100A700009F4A7C0883C09F4A4C0883B09F48AC0E3
:100A8000AAC08091BB0110C09091BA018091B901B8
:100A9000981770F5E091BA0181E08E0F8093BA014A
:100AA000F0E0E756FE4F80818093BB0085EC86C066
:100AB000809398018EC0E091BA0181E08E0F8093FF
:100AC000BA018091BB00F0E0E756FE4F8083909121
:100AD000BA018091B9016EC0E091BA0181E08E0F38
:100AE0008093BA018091BB00F0E0E756FE4F80830F
:100AF0008091CC0181116DC081E08093CB0184EAAB
:100B000061C083E08093CD0110929701CFCF809197
:100B10009701803208F051C0E091970181E08E0F7B
:100B2000809397018091BB00F0E0E958FE4F8083ED
:100B3000BDCF85EC8093BC001092CD0180919701D0
:100B4000803230F4E0919701F0E0E958FE4F1082D6
:100B50006091970170E0E091C701F091C80187E7CB
:100B600091E009951092970136C084E08093CD0101
:100B70001092760110927501E091C901F091CA01BD
:100B8000099580917501811105C081E080937501FF
:100B900010925501E091760181E08E0F80937601ED
:100BA000F0E0EB5AFE4F80818093BB00909176017C
:100BB00080917501981708F479CF85E88093BC007F
:100BC0000AC085EC8093BC001092CD0104C0109245
:100BD00098010E94D602FF91EF91BF91AF919F9132
:100BE0008F917F916F915F914F913F912F910F90D6
:100BF0000FBE0F901F901895E5E2F2E0138212826B
:100C000088EE93E0A0E0B0E084839583A683B78369
:100C100029E031E03183208325EC30E035872487DB
:100C200024EC30E03787268720EC30E0318B208BB6
:100C300021EC30E0338B228B22EC30E0358B248B9F
:100C400026EC30E0378B268B118E128E138E148E8D
:100C5000E2ECF2E01382128284839583A683B78349
:100C60008BE191E0918380830895CF93DF9300D04F
:100C700000D000D0CDB7DEB7789484B5826084BD53
:100C800084B5816084BD85B5826085BD85B5816090
:100C900085BD80916E00816080936E00109281000E
:100CA00080918100826080938100809181008160C9
:100CB000809381008091800081608093800080918A
:100CC000B10084608093B1008091B0008160809316
:100CD000B00080917A00846080937A0080917A00DD
:100CE000826080937A0080917A00816080937A009C
:100CF00080917A00806880937A001092C1000FB6CC
:100D0000F894A895809160008861809360001092AB
:100D100060000FBE60E082E00E943B021092D101B1
:100D20001092D0011092CF011092CE011092CD01FD
:100D300081E08093CC011092CB0182E10E94AF0050
:100D400083E10E94AF008091B9008E7F8093B9004B
:100D50008091B9008D7F8093B90088E48093B800BA
:100D600085E48093BC0083E291E09093CA01809374
:100D7000C9018FE291E09093C8018093C70180E59B
:100D80008093BA008FE693E09093D3018093D201D1
:100D900084E593E09093D5018093D4010E9487006D
:100DA0008FE191E0909301018093000180916900AF
:100DB0008C7F816080936900E89A9FE088E10FB69C
:100DC000F894A895809360000FBE909360004AE06D
:100DD000242E312C64E670E080E090E00E949C02BA
:100DE00080910401882309F47FC0109204010FB69A
:100DF000F894A895809160008861809360001092BB
:100E000060000FBE83B7817F846083BF83B781603A
:100E100083BF2FE131E030930101209300018091E5
:100E200069008C7F816080936900E89A85E292E096
:100E30000E940F02E0913702F091380280818F7E8C
:100E40008083E0913702F09138028081877F808330
:100E5000E0913702F091380280818F778083E091B2
:100E60003702F091380280818F7D808380913F022C
:100E700080933E0261E080E00E943B0261E081E0FD
:100E80000E943B0280E00E94AF0081E00E94AF0020
:100E900010927A0065E070E080E090E00E949C0291
:100EA00030E635BF40E445BF7894889558E18FE03F
:100EB0000FB6F894A895509360000FBE8093600021
:100EC00083B78E7F83BFE898E2E2F1E0F0930101FF
:100ED000E093000161E080E00E943B0261E081E07C
:100EE0000E943B020E948700A89585E292E00E9442
:100EF0008A01892BE9F06AE070E080E090E00E94CE
:100F00009C0285E292E00E948A01892B89F0F0918F
:100F10002402F98385E292E00E9468012981E22F90
:100F2000F0E0E851FE4F80832F5F20932402E9CF49
:100F3000A0912402AA3018F40E9431024BCF809075
:100F4000E4019090E501A090E601B090E701C09027
:100F5000E001D090E101E090E201F090E301009126
:100F6000DE011091DF012091DA013091DB01409127
:100F7000DC015091DD0129833A834B835C836091CE
:100F8000D6017091D7018091D8019091D90148EE96
:100F900051E05E834D83ED81FE8120812A3A09F084
:100FA0006CC02181203C09F068C021852B3A09F0F2
:100FB00064C040E022E030E0ED81FE81E20FF31FEB
:100FC0005081450F2F5F3F4F28303105A9F750E082
:100FD000ED81FE812085022E000C330B4217530752
:100FE00009F04CC0858190E0982F88272481820FDA
:100FF000911DB1010E94E009072E000C880B990B8E
:101000000E9454099B01AC01C501B4010E947408FF
:101010004B015C01ED81FE81838190E0982F882750
:101020002281820F911DB1010E94E009072E000C60
:10103000880B990B0E9454099B01AC01C701B601B2
:101040000E9474086B017C010F5F1F4FB80180E0A4
:1010500090E00E9452092B013C019B01AC01C501AB
:10106000B4010E94E00869837A838B839C83A30187
:101070009201C701B6010E94E008A0E02D813E81E7
:101080002F5F3F4F3E832D83225F314009F083CF96
:101090008092E4019092E501A092E601B092E7010E
:1010A000C092E001D092E101E092E201F092E3010E
:1010B000A09324021093DF010093DE0129813A817D
:1010C0004B815C812093DA013093DB014093DC019A
:1010D0005093DD016093D6017093D7018093D801BE
:1010E0009093D90129CF5058BB27AA270E948B087B
:1010F0000C94A6090E94980938F00E949F0920F0DC
:1011000039F49F3F19F426F40C9495090EF4E095F8
:10111000E7FB0C948F09E92F0E94B70958F3BA171F
:10112000620773078407950720F079F4A6F50C94FD
:10113000D9090EF4E0950B2EBA2FA02D0B01B901A1
:1011400090010C01CA01A0011124FF27591B99F03D
:10115000593F50F4503E68F11A16F040A22F232F49
:10116000342F4427585FF3CF469537952795A79599
:10117000F0405395C9F77EF41F16BA0B620B730B40
:10118000840BBAF09150A1F0FF0FBB1F661F771FB1
:10119000881FC2F70EC0BA0F621F731F841F48F466
:1011A000879577956795B795F7959E3F08F0B0CFEF
:1011B0009395880F08F09927EE0F979587950895D6
:1011C0000E94F4080C94A6090E949F0958F00E94FE
:1011D000980940F029F45F3F29F00C948F095111D0
:1011E0000C94DA090C9495090E94B70968F39923C5
:1011F000B1F3552391F3951B550BBB27AA27621713
:101200007307840738F09F5F5F4F220F331F441F1F
:10121000AA1FA9F335D00E2E3AF0E0E832D0915053
:101220005040E695001CCAF72BD0FE2F29D0660F40
:10123000771F881FBB1F261737074807AB07B0E883
:1012400009F0BB0B802DBF01FF2793585F4F3AF089
:101250009E3F510578F00C948F090C94DA095F3F9A
:10126000E4F3983ED4F3869577956795B795F7950F
:101270009F5FC9F7880F911D9695879597F90895F7
:10128000E1E0660F771F881FBB1F62177307840793
:10129000BA0720F0621B730B840BBA0BEE1F88F7A2
:1012A000E0950895E89409C097FB3EF490958095E9
:1012B000709561957F4F8F4F9F4F9923A9F0F92F1C
:1012C00096E9BB279395F695879577956795B7959A
:1012D000F111F8CFFAF4BB0F11F460FF1BC06F5F80
:1012E0007F4F8F4F9F4F16C0882311F096E911C092
:1012F000772321F09EE8872F762F05C0662371F0B3
:1013000096E8862F70E060E02AF09A95660F771FC6
:10131000881FDAF7880F9695879597F9089597F9BA
:101320009F6780E870E060E008959FEF80EC08958B
:1013300000240A94161617061806090608950024B4
:101340000A9412161306140605060895092E03942E
:10135000000C11F4882352F0BB0F40F4BF2B11F4A2
:1013600060FF04C06F5F7F4F8F4F9F4F089557FD01
:101370009058440F551F59F05F3F71F04795880F03
:1013800097FB991F61F09F3F79F08795089512169A
:1013900013061406551FF2CF4695F1DF08C0161646
:1013A00017061806991FF1CF8695710561050894F7
:1013B0000895E894BB2766277727CB0197F908950E
:1013C00097FB072E16F4009407D077FD09D00E94F2
:1013D000F40907FC05D03EF4909581959F4F089540
:1013E000709561957F4F0895AA1BBB1B51E107C003
:1013F000AA1FBB1FA617B70710F0A61BB70B881FA5
:10140000991F5A95A9F780959095BC01CD01089533
:10141000EE0FFF1F0590F491E02D099481E090E01C
:0A142000F8940C94130AF894FFCF1F
:10142A00220122010100000000C201F50059010F4A
:10143A00028A0168017C01000000003F0334035165
:0A144A000308032C03180309030034
:00000001FF
